{
  "_format": "hh-sol-artifact-1",
  "contractName": "NFT",
  "sourceName": "contracts/NFTMarket.sol",
  "abi": [
    {
      "inputs": [],
      "stateMutability": "nonpayable",
      "type": "constructor"
    },
    {
      "inputs": [
        {
          "internalType": "address",
          "name": "sender",
          "type": "address"
        },
        {
          "internalType": "uint256",
          "name": "tokenId",
          "type": "uint256"
        },
        {
          "internalType": "address",
          "name": "owner",
          "type": "address"
        }
      ],
      "name": "ERC721IncorrectOwner",
      "type": "error"
    },
    {
      "inputs": [
        {
          "internalType": "address",
          "name": "operator",
          "type": "address"
        },
        {
          "internalType": "uint256",
          "name": "tokenId",
          "type": "uint256"
        }
      ],
      "name": "ERC721InsufficientApproval",
      "type": "error"
    },
    {
      "inputs": [
        {
          "internalType": "address",
          "name": "approver",
          "type": "address"
        }
      ],
      "name": "ERC721InvalidApprover",
      "type": "error"
    },
    {
      "inputs": [
        {
          "internalType": "address",
          "name": "operator",
          "type": "address"
        }
      ],
      "name": "ERC721InvalidOperator",
      "type": "error"
    },
    {
      "inputs": [
        {
          "internalType": "address",
          "name": "owner",
          "type": "address"
        }
      ],
      "name": "ERC721InvalidOwner",
      "type": "error"
    },
    {
      "inputs": [
        {
          "internalType": "address",
          "name": "receiver",
          "type": "address"
        }
      ],
      "name": "ERC721InvalidReceiver",
      "type": "error"
    },
    {
      "inputs": [
        {
          "internalType": "address",
          "name": "sender",
          "type": "address"
        }
      ],
      "name": "ERC721InvalidSender",
      "type": "error"
    },
    {
      "inputs": [
        {
          "internalType": "uint256",
          "name": "tokenId",
          "type": "uint256"
        }
      ],
      "name": "ERC721NonexistentToken",
      "type": "error"
    },
    {
      "anonymous": false,
      "inputs": [
        {
          "indexed": true,
          "internalType": "address",
          "name": "owner",
          "type": "address"
        },
        {
          "indexed": true,
          "internalType": "address",
          "name": "approved",
          "type": "address"
        },
        {
          "indexed": true,
          "internalType": "uint256",
          "name": "tokenId",
          "type": "uint256"
        }
      ],
      "name": "Approval",
      "type": "event"
    },
    {
      "anonymous": false,
      "inputs": [
        {
          "indexed": true,
          "internalType": "address",
          "name": "owner",
          "type": "address"
        },
        {
          "indexed": true,
          "internalType": "address",
          "name": "operator",
          "type": "address"
        },
        {
          "indexed": false,
          "internalType": "bool",
          "name": "approved",
          "type": "bool"
        }
      ],
      "name": "ApprovalForAll",
      "type": "event"
    },
    {
      "anonymous": false,
      "inputs": [
        {
          "indexed": false,
          "internalType": "uint256",
          "name": "_fromTokenId",
          "type": "uint256"
        },
        {
          "indexed": false,
          "internalType": "uint256",
          "name": "_toTokenId",
          "type": "uint256"
        }
      ],
      "name": "BatchMetadataUpdate",
      "type": "event"
    },
    {
      "anonymous": false,
      "inputs": [
        {
          "indexed": false,
          "internalType": "uint256",
          "name": "_tokenId",
          "type": "uint256"
        }
      ],
      "name": "MetadataUpdate",
      "type": "event"
    },
    {
      "anonymous": false,
      "inputs": [
        {
          "indexed": false,
          "internalType": "uint256",
          "name": "tokenID",
          "type": "uint256"
        },
        {
          "indexed": false,
          "internalType": "address",
          "name": "from",
          "type": "address"
        },
        {
          "indexed": false,
          "internalType": "address",
          "name": "to",
          "type": "address"
        },
        {
          "indexed": false,
          "internalType": "string",
          "name": "tokenURI",
          "type": "string"
        }
      ],
      "name": "NFTTransferEvent",
      "type": "event"
    },
    {
      "anonymous": false,
      "inputs": [
        {
          "indexed": true,
          "internalType": "address",
          "name": "from",
          "type": "address"
        },
        {
          "indexed": true,
          "internalType": "address",
          "name": "to",
          "type": "address"
        },
        {
          "indexed": true,
          "internalType": "uint256",
          "name": "tokenId",
          "type": "uint256"
        }
      ],
      "name": "Transfer",
      "type": "event"
    },
    {
      "inputs": [
        {
          "internalType": "address",
          "name": "to",
          "type": "address"
        },
        {
          "internalType": "uint256",
          "name": "tokenId",
          "type": "uint256"
        }
      ],
      "name": "approve",
      "outputs": [],
      "stateMutability": "nonpayable",
      "type": "function"
    },
    {
      "inputs": [
        {
          "internalType": "address",
          "name": "owner",
          "type": "address"
        }
      ],
      "name": "balanceOf",
      "outputs": [
        {
          "internalType": "uint256",
          "name": "",
          "type": "uint256"
        }
      ],
      "stateMutability": "view",
      "type": "function"
    },
    {
      "inputs": [
        {
          "internalType": "string",
          "name": "tokenURI",
          "type": "string"
        }
      ],
      "name": "createNFT",
      "outputs": [
        {
          "internalType": "uint256",
          "name": "",
          "type": "uint256"
        }
      ],
      "stateMutability": "nonpayable",
      "type": "function"
    },
    {
      "inputs": [
        {
          "internalType": "uint256",
          "name": "tokenId",
          "type": "uint256"
        }
      ],
      "name": "getApproved",
      "outputs": [
        {
          "internalType": "address",
          "name": "",
          "type": "address"
        }
      ],
      "stateMutability": "view",
      "type": "function"
    },
    {
      "inputs": [
        {
          "internalType": "address",
          "name": "owner",
          "type": "address"
        },
        {
          "internalType": "address",
          "name": "operator",
          "type": "address"
        }
      ],
      "name": "isApprovedForAll",
      "outputs": [
        {
          "internalType": "bool",
          "name": "",
          "type": "bool"
        }
      ],
      "stateMutability": "view",
      "type": "function"
    },
    {
      "inputs": [],
      "name": "name",
      "outputs": [
        {
          "internalType": "string",
          "name": "",
          "type": "string"
        }
      ],
      "stateMutability": "view",
      "type": "function"
    },
    {
      "inputs": [
        {
          "internalType": "uint256",
          "name": "tokenId",
          "type": "uint256"
        }
      ],
      "name": "ownerOf",
      "outputs": [
        {
          "internalType": "address",
          "name": "",
          "type": "address"
        }
      ],
      "stateMutability": "view",
      "type": "function"
    },
    {
      "inputs": [
        {
          "internalType": "address",
          "name": "from",
          "type": "address"
        },
        {
          "internalType": "address",
          "name": "to",
          "type": "address"
        },
        {
          "internalType": "uint256",
          "name": "tokenId",
          "type": "uint256"
        }
      ],
      "name": "safeTransferFrom",
      "outputs": [],
      "stateMutability": "nonpayable",
      "type": "function"
    },
    {
      "inputs": [
        {
          "internalType": "address",
          "name": "from",
          "type": "address"
        },
        {
          "internalType": "address",
          "name": "to",
          "type": "address"
        },
        {
          "internalType": "uint256",
          "name": "tokenId",
          "type": "uint256"
        },
        {
          "internalType": "bytes",
          "name": "data",
          "type": "bytes"
        }
      ],
      "name": "safeTransferFrom",
      "outputs": [],
      "stateMutability": "nonpayable",
      "type": "function"
    },
    {
      "inputs": [
        {
          "internalType": "address",
          "name": "operator",
          "type": "address"
        },
        {
          "internalType": "bool",
          "name": "approved",
          "type": "bool"
        }
      ],
      "name": "setApprovalForAll",
      "outputs": [],
      "stateMutability": "nonpayable",
      "type": "function"
    },
    {
      "inputs": [
        {
          "internalType": "bytes4",
          "name": "interfaceId",
          "type": "bytes4"
        }
      ],
      "name": "supportsInterface",
      "outputs": [
        {
          "internalType": "bool",
          "name": "",
          "type": "bool"
        }
      ],
      "stateMutability": "view",
      "type": "function"
    },
    {
      "inputs": [],
      "name": "symbol",
      "outputs": [
        {
          "internalType": "string",
          "name": "",
          "type": "string"
        }
      ],
      "stateMutability": "view",
      "type": "function"
    },
    {
      "inputs": [
        {
          "internalType": "uint256",
          "name": "tokenId",
          "type": "uint256"
        }
      ],
      "name": "tokenURI",
      "outputs": [
        {
          "internalType": "string",
          "name": "",
          "type": "string"
        }
      ],
      "stateMutability": "view",
      "type": "function"
    },
    {
      "inputs": [
        {
          "internalType": "address",
          "name": "from",
          "type": "address"
        },
        {
          "internalType": "address",
          "name": "to",
          "type": "address"
        },
        {
          "internalType": "uint256",
          "name": "tokenId",
          "type": "uint256"
        }
      ],
      "name": "transferFrom",
      "outputs": [],
      "stateMutability": "nonpayable",
      "type": "function"
    }
  ],
  "bytecode": "0x608060405260006007553480156200001657600080fd5b506040518060400160405280600981526020017f47656d61204e46547300000000000000000000000000000000000000000000008152506040518060400160405280600981526020017f47656d61204e4654730000000000000000000000000000000000000000000000815250816000908162000094919062000329565b508060019081620000a6919062000329565b50505062000410565b600081519050919050565b7f4e487b7100000000000000000000000000000000000000000000000000000000600052604160045260246000fd5b7f4e487b7100000000000000000000000000000000000000000000000000000000600052602260045260246000fd5b600060028204905060018216806200013157607f821691505b602082108103620001475762000146620000e9565b5b50919050565b60008190508160005260206000209050919050565b60006020601f8301049050919050565b600082821b905092915050565b600060088302620001b17fffffffffffffffffffffffffffffffffffffffffffffffffffffffffffffffff8262000172565b620001bd868362000172565b95508019841693508086168417925050509392505050565b6000819050919050565b6000819050919050565b60006200020a62000204620001fe84620001d5565b620001df565b620001d5565b9050919050565b6000819050919050565b6200022683620001e9565b6200023e620002358262000211565b8484546200017f565b825550505050565b600090565b6200025562000246565b620002628184846200021b565b505050565b5b818110156200028a576200027e6000826200024b565b60018101905062000268565b5050565b601f821115620002d957620002a3816200014d565b620002ae8462000162565b81016020851015620002be578190505b620002d6620002cd8562000162565b83018262000267565b50505b505050565b600082821c905092915050565b6000620002fe60001984600802620002de565b1980831691505092915050565b6000620003198383620002eb565b9150826002028217905092915050565b6200033482620000af565b67ffffffffffffffff81111562000350576200034f620000ba565b5b6200035c825462000118565b620003698282856200028e565b600060209050601f831160018114620003a157600084156200038c578287015190505b6200039885826200030b565b86555062000408565b601f198416620003b1866200014d565b60005b82811015620003db57848901518255600182019150602085019450602081019050620003b4565b86831015620003fb5784890151620003f7601f891682620002eb565b8355505b6001600288020188555050505b505050505050565b6124aa80620004206000396000f3fe608060405234801561001057600080fd5b50600436106100ea5760003560e01c806370a082311161008c578063b88d4fde11610066578063b88d4fde1461025b578063c87b56dd14610277578063da2ed03e146102a7578063e985e9c5146102d7576100ea565b806370a08231146101f157806395d89b4114610221578063a22cb4651461023f576100ea565b8063095ea7b3116100c8578063095ea7b31461016d57806323b872dd1461018957806342842e0e146101a55780636352211e146101c1576100ea565b806301ffc9a7146100ef57806306fdde031461011f578063081812fc1461013d575b600080fd5b610109600480360381019061010491906118d7565b610307565b604051610116919061191f565b60405180910390f35b610127610368565b60405161013491906119ca565b60405180910390f35b61015760048036038101906101529190611a22565b6103fa565b6040516101649190611a90565b60405180910390f35b61018760048036038101906101829190611ad7565b610416565b005b6101a3600480360381019061019e9190611b17565b61042c565b005b6101bf60048036038101906101ba9190611b17565b61052e565b005b6101db60048036038101906101d69190611a22565b61054e565b6040516101e89190611a90565b60405180910390f35b61020b60048036038101906102069190611b6a565b610560565b6040516102189190611ba6565b60405180910390f35b61022961061a565b60405161023691906119ca565b60405180910390f35b61025960048036038101906102549190611bed565b6106ac565b005b61027560048036038101906102709190611d62565b6106c2565b005b610291600480360381019061028c9190611a22565b6106df565b60405161029e91906119ca565b60405180910390f35b6102c160048036038101906102bc9190611e45565b6107f2565b6040516102ce9190611ba6565b60405180910390f35b6102f160048036038101906102ec9190611e92565b6108b5565b6040516102fe919061191f565b60405180910390f35b6000634906490660e01b7bffffffffffffffffffffffffffffffffffffffffffffffffffffffff1916827bffffffffffffffffffffffffffffffffffffffffffffffffffffffff19161480610361575061036082610949565b5b9050919050565b60606000805461037790611f01565b80601f01602080910402602001604051908101604052809291908181526020018280546103a390611f01565b80156103f05780601f106103c5576101008083540402835291602001916103f0565b820191906000526020600020905b8154815290600101906020018083116103d357829003601f168201915b5050505050905090565b600061040582610a2b565b5061040f82610ab3565b9050919050565b6104288282610423610af0565b610af8565b5050565b600073ffffffffffffffffffffffffffffffffffffffff168273ffffffffffffffffffffffffffffffffffffffff160361049e5760006040517f64a0ae920000000000000000000000000000000000000000000000000000000081526004016104959190611a90565b60405180910390fd5b60006104b283836104ad610af0565b610b0a565b90508373ffffffffffffffffffffffffffffffffffffffff168173ffffffffffffffffffffffffffffffffffffffff1614610528578382826040517f64283d7b00000000000000000000000000000000000000000000000000000000815260040161051f93929190611f32565b60405180910390fd5b50505050565b610549838383604051806020016040528060008152506106c2565b505050565b600061055982610a2b565b9050919050565b60008073ffffffffffffffffffffffffffffffffffffffff168273ffffffffffffffffffffffffffffffffffffffff16036105d35760006040517f89c62b640000000000000000000000000000000000000000000000000000000081526004016105ca9190611a90565b60405180910390fd5b600360008373ffffffffffffffffffffffffffffffffffffffff1673ffffffffffffffffffffffffffffffffffffffff168152602001908152602001600020549050919050565b60606001805461062990611f01565b80601f016020809104026020016040519081016040528092919081815260200182805461065590611f01565b80156106a25780601f10610677576101008083540402835291602001916106a2565b820191906000526020600020905b81548152906001019060200180831161068557829003601f168201915b5050505050905090565b6106be6106b7610af0565b8383610d24565b5050565b6106cd84848461042c565b6106d984848484610e93565b50505050565b60606106ea82610a2b565b50600060066000848152602001908152602001600020805461070b90611f01565b80601f016020809104026020016040519081016040528092919081815260200182805461073790611f01565b80156107845780601f1061075957610100808354040283529160200191610784565b820191906000526020600020905b81548152906001019060200180831161076757829003601f168201915b50505050509050600061079561104a565b905060008151036107aa5781925050506107ed565b6000825111156107df5780826040516020016107c7929190611fa5565b604051602081830303815290604052925050506107ed565b6107e884611061565b925050505b919050565b60006007600081548092919061080790611ff8565b9190505550610818336007546110ca565b61086860075484848080601f016020809104026020016040519081016040528093929190818152602001838380828437600081840152601f19601f820116905080830192505050505050506110e8565b7f8076732481178c079d665502a396090482213224bd249f28a63275481dd4811f60075460003386866040516108a295949392919061206d565b60405180910390a1600754905092915050565b6000600560008473ffffffffffffffffffffffffffffffffffffffff1673ffffffffffffffffffffffffffffffffffffffff16815260200190815260200160002060008373ffffffffffffffffffffffffffffffffffffffff1673ffffffffffffffffffffffffffffffffffffffff16815260200190815260200160002060009054906101000a900460ff16905092915050565b60007f80ac58cd000000000000000000000000000000000000000000000000000000007bffffffffffffffffffffffffffffffffffffffffffffffffffffffff1916827bffffffffffffffffffffffffffffffffffffffffffffffffffffffff19161480610a1457507f5b5e139f000000000000000000000000000000000000000000000000000000007bffffffffffffffffffffffffffffffffffffffffffffffffffffffff1916827bffffffffffffffffffffffffffffffffffffffffffffffffffffffff1916145b80610a245750610a2382611144565b5b9050919050565b600080610a37836111ae565b9050600073ffffffffffffffffffffffffffffffffffffffff168173ffffffffffffffffffffffffffffffffffffffff1603610aaa57826040517f7e273289000000000000000000000000000000000000000000000000000000008152600401610aa19190611ba6565b60405180910390fd5b80915050919050565b60006004600083815260200190815260200160002060009054906101000a900473ffffffffffffffffffffffffffffffffffffffff169050919050565b600033905090565b610b0583838360016111eb565b505050565b600080610b16846111ae565b9050600073ffffffffffffffffffffffffffffffffffffffff168373ffffffffffffffffffffffffffffffffffffffff1614610b5857610b578184866113b0565b5b600073ffffffffffffffffffffffffffffffffffffffff168173ffffffffffffffffffffffffffffffffffffffff1614610be957610b9a6000856000806111eb565b6001600360008373ffffffffffffffffffffffffffffffffffffffff1673ffffffffffffffffffffffffffffffffffffffff168152602001908152602001600020600082825403925050819055505b600073ffffffffffffffffffffffffffffffffffffffff168573ffffffffffffffffffffffffffffffffffffffff1614610c6c576001600360008773ffffffffffffffffffffffffffffffffffffffff1673ffffffffffffffffffffffffffffffffffffffff168152602001908152602001600020600082825401925050819055505b846002600086815260200190815260200160002060006101000a81548173ffffffffffffffffffffffffffffffffffffffff021916908373ffffffffffffffffffffffffffffffffffffffff160217905550838573ffffffffffffffffffffffffffffffffffffffff168273ffffffffffffffffffffffffffffffffffffffff167fddf252ad1be2c89b69c2b068fc378daa952ba7f163c4a11628f55a4df523b3ef60405160405180910390a4809150509392505050565b600073ffffffffffffffffffffffffffffffffffffffff168273ffffffffffffffffffffffffffffffffffffffff1603610d9557816040517f5b08ba18000000000000000000000000000000000000000000000000000000008152600401610d8c9190611a90565b60405180910390fd5b80600560008573ffffffffffffffffffffffffffffffffffffffff1673ffffffffffffffffffffffffffffffffffffffff16815260200190815260200160002060008473ffffffffffffffffffffffffffffffffffffffff1673ffffffffffffffffffffffffffffffffffffffff16815260200190815260200160002060006101000a81548160ff0219169083151502179055508173ffffffffffffffffffffffffffffffffffffffff168373ffffffffffffffffffffffffffffffffffffffff167f17307eab39ab6107e8899845ad3d59bd9653f200f220920489ca2b5937696c3183604051610e86919061191f565b60405180910390a3505050565b60008373ffffffffffffffffffffffffffffffffffffffff163b1115611044578273ffffffffffffffffffffffffffffffffffffffff1663150b7a02610ed7610af0565b8685856040518563ffffffff1660e01b8152600401610ef99493929190612110565b6020604051808303816000875af1925050508015610f3557506040513d601f19601f82011682018060405250810190610f329190612171565b60015b610fb9573d8060008114610f65576040519150601f19603f3d011682016040523d82523d6000602084013e610f6a565b606091505b506000815103610fb157836040517f64a0ae92000000000000000000000000000000000000000000000000000000008152600401610fa89190611a90565b60405180910390fd5b805181602001fd5b63150b7a0260e01b7bffffffffffffffffffffffffffffffffffffffffffffffffffffffff1916817bffffffffffffffffffffffffffffffffffffffffffffffffffffffff19161461104257836040517f64a0ae920000000000000000000000000000000000000000000000000000000081526004016110399190611a90565b60405180910390fd5b505b50505050565b606060405180602001604052806000815250905090565b606061106c82610a2b565b50600061107761104a565b9050600081511161109757604051806020016040528060008152506110c2565b806110a184611474565b6040516020016110b2929190611fa5565b6040516020818303038152906040525b915050919050565b6110e4828260405180602001604052806000815250611542565b5050565b80600660008481526020019081526020016000209081611108919061234a565b507ff8e1a15aba9398e019f0b49df1a4fde98ee17ae345cb5f6b5e2c27f5033e8ce7826040516111389190611ba6565b60405180910390a15050565b60007f01ffc9a7000000000000000000000000000000000000000000000000000000007bffffffffffffffffffffffffffffffffffffffffffffffffffffffff1916827bffffffffffffffffffffffffffffffffffffffffffffffffffffffff1916149050919050565b60006002600083815260200190815260200160002060009054906101000a900473ffffffffffffffffffffffffffffffffffffffff169050919050565b80806112245750600073ffffffffffffffffffffffffffffffffffffffff168273ffffffffffffffffffffffffffffffffffffffff1614155b1561135857600061123484610a2b565b9050600073ffffffffffffffffffffffffffffffffffffffff168373ffffffffffffffffffffffffffffffffffffffff161415801561129f57508273ffffffffffffffffffffffffffffffffffffffff168173ffffffffffffffffffffffffffffffffffffffff1614155b80156112b257506112b081846108b5565b155b156112f457826040517fa9fbf51f0000000000000000000000000000000000000000000000000000000081526004016112eb9190611a90565b60405180910390fd5b811561135657838573ffffffffffffffffffffffffffffffffffffffff168273ffffffffffffffffffffffffffffffffffffffff167f8c5be1e5ebec7d5bd14f71427d1e84f3dd0314c0f7b2291e5b200ac8c7c3b92560405160405180910390a45b505b836004600085815260200190815260200160002060006101000a81548173ffffffffffffffffffffffffffffffffffffffff021916908373ffffffffffffffffffffffffffffffffffffffff16021790555050505050565b6113bb83838361155e565b61146f57600073ffffffffffffffffffffffffffffffffffffffff168373ffffffffffffffffffffffffffffffffffffffff160361143057806040517f7e2732890000000000000000000000000000000000000000000000000000000081526004016114279190611ba6565b60405180910390fd5b81816040517f177e802f00000000000000000000000000000000000000000000000000000000815260040161146692919061241c565b60405180910390fd5b505050565b6060600060016114838461161f565b01905060008167ffffffffffffffff8111156114a2576114a1611c37565b5b6040519080825280601f01601f1916602001820160405280156114d45781602001600182028036833780820191505090505b509050600082602001820190505b600115611537578080600190039150507f3031323334353637383961626364656600000000000000000000000000000000600a86061a8153600a858161152b5761152a612445565b5b049450600085036114e2575b819350505050919050565b61154c8383611772565b6115596000848484610e93565b505050565b60008073ffffffffffffffffffffffffffffffffffffffff168373ffffffffffffffffffffffffffffffffffffffff161415801561161657508273ffffffffffffffffffffffffffffffffffffffff168473ffffffffffffffffffffffffffffffffffffffff1614806115d757506115d684846108b5565b5b8061161557508273ffffffffffffffffffffffffffffffffffffffff166115fd83610ab3565b73ffffffffffffffffffffffffffffffffffffffff16145b5b90509392505050565b600080600090507a184f03e93ff9f4daa797ed6e38ed64bf6a1f010000000000000000831061167d577a184f03e93ff9f4daa797ed6e38ed64bf6a1f010000000000000000838161167357611672612445565b5b0492506040810190505b6d04ee2d6d415b85acef810000000083106116ba576d04ee2d6d415b85acef810000000083816116b0576116af612445565b5b0492506020810190505b662386f26fc1000083106116e957662386f26fc1000083816116df576116de612445565b5b0492506010810190505b6305f5e1008310611712576305f5e100838161170857611707612445565b5b0492506008810190505b612710831061173757612710838161172d5761172c612445565b5b0492506004810190505b6064831061175a57606483816117505761174f612445565b5b0492506002810190505b600a8310611769576001810190505b80915050919050565b600073ffffffffffffffffffffffffffffffffffffffff168273ffffffffffffffffffffffffffffffffffffffff16036117e45760006040517f64a0ae920000000000000000000000000000000000000000000000000000000081526004016117db9190611a90565b60405180910390fd5b60006117f283836000610b0a565b9050600073ffffffffffffffffffffffffffffffffffffffff168173ffffffffffffffffffffffffffffffffffffffff16146118665760006040517f73c6ac6e00000000000000000000000000000000000000000000000000000000815260040161185d9190611a90565b60405180910390fd5b505050565b6000604051905090565b600080fd5b600080fd5b60007fffffffff0000000000000000000000000000000000000000000000000000000082169050919050565b6118b48161187f565b81146118bf57600080fd5b50565b6000813590506118d1816118ab565b92915050565b6000602082840312156118ed576118ec611875565b5b60006118fb848285016118c2565b91505092915050565b60008115159050919050565b61191981611904565b82525050565b60006020820190506119346000830184611910565b92915050565b600081519050919050565b600082825260208201905092915050565b60005b83811015611974578082015181840152602081019050611959565b60008484015250505050565b6000601f19601f8301169050919050565b600061199c8261193a565b6119a68185611945565b93506119b6818560208601611956565b6119bf81611980565b840191505092915050565b600060208201905081810360008301526119e48184611991565b905092915050565b6000819050919050565b6119ff816119ec565b8114611a0a57600080fd5b50565b600081359050611a1c816119f6565b92915050565b600060208284031215611a3857611a37611875565b5b6000611a4684828501611a0d565b91505092915050565b600073ffffffffffffffffffffffffffffffffffffffff82169050919050565b6000611a7a82611a4f565b9050919050565b611a8a81611a6f565b82525050565b6000602082019050611aa56000830184611a81565b92915050565b611ab481611a6f565b8114611abf57600080fd5b50565b600081359050611ad181611aab565b92915050565b60008060408385031215611aee57611aed611875565b5b6000611afc85828601611ac2565b9250506020611b0d85828601611a0d565b9150509250929050565b600080600060608486031215611b3057611b2f611875565b5b6000611b3e86828701611ac2565b9350506020611b4f86828701611ac2565b9250506040611b6086828701611a0d565b9150509250925092565b600060208284031215611b8057611b7f611875565b5b6000611b8e84828501611ac2565b91505092915050565b611ba0816119ec565b82525050565b6000602082019050611bbb6000830184611b97565b92915050565b611bca81611904565b8114611bd557600080fd5b50565b600081359050611be781611bc1565b92915050565b60008060408385031215611c0457611c03611875565b5b6000611c1285828601611ac2565b9250506020611c2385828601611bd8565b9150509250929050565b600080fd5b600080fd5b7f4e487b7100000000000000000000000000000000000000000000000000000000600052604160045260246000fd5b611c6f82611980565b810181811067ffffffffffffffff82111715611c8e57611c8d611c37565b5b80604052505050565b6000611ca161186b565b9050611cad8282611c66565b919050565b600067ffffffffffffffff821115611ccd57611ccc611c37565b5b611cd682611980565b9050602081019050919050565b82818337600083830152505050565b6000611d05611d0084611cb2565b611c97565b905082815260208101848484011115611d2157611d20611c32565b5b611d2c848285611ce3565b509392505050565b600082601f830112611d4957611d48611c2d565b5b8135611d59848260208601611cf2565b91505092915050565b60008060008060808587031215611d7c57611d7b611875565b5b6000611d8a87828801611ac2565b9450506020611d9b87828801611ac2565b9350506040611dac87828801611a0d565b925050606085013567ffffffffffffffff811115611dcd57611dcc61187a565b5b611dd987828801611d34565b91505092959194509250565b600080fd5b600080fd5b60008083601f840112611e0557611e04611c2d565b5b8235905067ffffffffffffffff811115611e2257611e21611de5565b5b602083019150836001820283011115611e3e57611e3d611dea565b5b9250929050565b60008060208385031215611e5c57611e5b611875565b5b600083013567ffffffffffffffff811115611e7a57611e7961187a565b5b611e8685828601611def565b92509250509250929050565b60008060408385031215611ea957611ea8611875565b5b6000611eb785828601611ac2565b9250506020611ec885828601611ac2565b9150509250929050565b7f4e487b7100000000000000000000000000000000000000000000000000000000600052602260045260246000fd5b60006002820490506001821680611f1957607f821691505b602082108103611f2c57611f2b611ed2565b5b50919050565b6000606082019050611f476000830186611a81565b611f546020830185611b97565b611f616040830184611a81565b949350505050565b600081905092915050565b6000611f7f8261193a565b611f898185611f69565b9350611f99818560208601611956565b80840191505092915050565b6000611fb18285611f74565b9150611fbd8284611f74565b91508190509392505050565b7f4e487b7100000000000000000000000000000000000000000000000000000000600052601160045260246000fd5b6000612003826119ec565b91507fffffffffffffffffffffffffffffffffffffffffffffffffffffffffffffffff820361203557612034611fc9565b5b600182019050919050565b600061204c8385611945565b9350612059838584611ce3565b61206283611980565b840190509392505050565b60006080820190506120826000830188611b97565b61208f6020830187611a81565b61209c6040830186611a81565b81810360608301526120af818486612040565b90509695505050505050565b600081519050919050565b600082825260208201905092915050565b60006120e2826120bb565b6120ec81856120c6565b93506120fc818560208601611956565b61210581611980565b840191505092915050565b60006080820190506121256000830187611a81565b6121326020830186611a81565b61213f6040830185611b97565b818103606083015261215181846120d7565b905095945050505050565b60008151905061216b816118ab565b92915050565b60006020828403121561218757612186611875565b5b60006121958482850161215c565b91505092915050565b60008190508160005260206000209050919050565b60006020601f8301049050919050565b600082821b905092915050565b6000600883026122007fffffffffffffffffffffffffffffffffffffffffffffffffffffffffffffffff826121c3565b61220a86836121c3565b95508019841693508086168417925050509392505050565b6000819050919050565b600061224761224261223d846119ec565b612222565b6119ec565b9050919050565b6000819050919050565b6122618361222c565b61227561226d8261224e565b8484546121d0565b825550505050565b600090565b61228a61227d565b612295818484612258565b505050565b5b818110156122b9576122ae600082612282565b60018101905061229b565b5050565b601f8211156122fe576122cf8161219e565b6122d8846121b3565b810160208510156122e7578190505b6122fb6122f3856121b3565b83018261229a565b50505b505050565b600082821c905092915050565b600061232160001984600802612303565b1980831691505092915050565b600061233a8383612310565b9150826002028217905092915050565b6123538261193a565b67ffffffffffffffff81111561236c5761236b611c37565b5b6123768254611f01565b6123818282856122bd565b600060209050601f8311600181146123b457600084156123a2578287015190505b6123ac858261232e565b865550612414565b601f1984166123c28661219e565b60005b828110156123ea578489015182556001820191506020850194506020810190506123c5565b868310156124075784890151612403601f891682612310565b8355505b6001600288020188555050505b505050505050565b60006040820190506124316000830185611a81565b61243e6020830184611b97565b9392505050565b7f4e487b7100000000000000000000000000000000000000000000000000000000600052601260045260246000fdfea26469706673582212207a86eeda19879cbfd78d03223f2b6a14d897d66515248571136c025c8570007d64736f6c63430008180033",
  "linkReferences": {},
  "deployedLinkReferences": {}
}