{
  "_format": "hh-sol-artifact-1",
  "contractName": "NFTMarket",
  "sourceName": "contracts/NFTMarket.sol",
  "abi": [
    {
      "inputs": [],
      "stateMutability": "nonpayable",
      "type": "constructor"
    },
    {
      "inputs": [
        {
          "internalType": "address",
          "name": "sender",
          "type": "address"
        },
        {
          "internalType": "uint256",
          "name": "tokenId",
          "type": "uint256"
        },
        {
          "internalType": "address",
          "name": "owner",
          "type": "address"
        }
      ],
      "name": "ERC721IncorrectOwner",
      "type": "error"
    },
    {
      "inputs": [
        {
          "internalType": "address",
          "name": "operator",
          "type": "address"
        },
        {
          "internalType": "uint256",
          "name": "tokenId",
          "type": "uint256"
        }
      ],
      "name": "ERC721InsufficientApproval",
      "type": "error"
    },
    {
      "inputs": [
        {
          "internalType": "address",
          "name": "approver",
          "type": "address"
        }
      ],
      "name": "ERC721InvalidApprover",
      "type": "error"
    },
    {
      "inputs": [
        {
          "internalType": "address",
          "name": "operator",
          "type": "address"
        }
      ],
      "name": "ERC721InvalidOperator",
      "type": "error"
    },
    {
      "inputs": [
        {
          "internalType": "address",
          "name": "owner",
          "type": "address"
        }
      ],
      "name": "ERC721InvalidOwner",
      "type": "error"
    },
    {
      "inputs": [
        {
          "internalType": "address",
          "name": "receiver",
          "type": "address"
        }
      ],
      "name": "ERC721InvalidReceiver",
      "type": "error"
    },
    {
      "inputs": [
        {
          "internalType": "address",
          "name": "sender",
          "type": "address"
        }
      ],
      "name": "ERC721InvalidSender",
      "type": "error"
    },
    {
      "inputs": [
        {
          "internalType": "uint256",
          "name": "tokenId",
          "type": "uint256"
        }
      ],
      "name": "ERC721NonexistentToken",
      "type": "error"
    },
    {
      "anonymous": false,
      "inputs": [
        {
          "indexed": true,
          "internalType": "address",
          "name": "owner",
          "type": "address"
        },
        {
          "indexed": true,
          "internalType": "address",
          "name": "approved",
          "type": "address"
        },
        {
          "indexed": true,
          "internalType": "uint256",
          "name": "tokenId",
          "type": "uint256"
        }
      ],
      "name": "Approval",
      "type": "event"
    },
    {
      "anonymous": false,
      "inputs": [
        {
          "indexed": true,
          "internalType": "address",
          "name": "owner",
          "type": "address"
        },
        {
          "indexed": true,
          "internalType": "address",
          "name": "operator",
          "type": "address"
        },
        {
          "indexed": false,
          "internalType": "bool",
          "name": "approved",
          "type": "bool"
        }
      ],
      "name": "ApprovalForAll",
      "type": "event"
    },
    {
      "anonymous": false,
      "inputs": [
        {
          "indexed": false,
          "internalType": "uint256",
          "name": "_fromTokenId",
          "type": "uint256"
        },
        {
          "indexed": false,
          "internalType": "uint256",
          "name": "_toTokenId",
          "type": "uint256"
        }
      ],
      "name": "BatchMetadataUpdate",
      "type": "event"
    },
    {
      "anonymous": false,
      "inputs": [
        {
          "indexed": false,
          "internalType": "uint256",
          "name": "_tokenId",
          "type": "uint256"
        }
      ],
      "name": "MetadataUpdate",
      "type": "event"
    },
    {
      "anonymous": false,
      "inputs": [
        {
          "indexed": false,
          "internalType": "uint256",
          "name": "tokenID",
          "type": "uint256"
        },
        {
          "indexed": false,
          "internalType": "address",
          "name": "from",
          "type": "address"
        },
        {
          "indexed": false,
          "internalType": "address",
          "name": "to",
          "type": "address"
        },
        {
          "indexed": false,
          "internalType": "uint256",
          "name": "price",
          "type": "uint256"
        }
      ],
      "name": "NFTTransferEvent",
      "type": "event"
    },
    {
      "anonymous": false,
      "inputs": [
        {
          "indexed": true,
          "internalType": "address",
          "name": "from",
          "type": "address"
        },
        {
          "indexed": true,
          "internalType": "address",
          "name": "to",
          "type": "address"
        },
        {
          "indexed": true,
          "internalType": "uint256",
          "name": "tokenId",
          "type": "uint256"
        }
      ],
      "name": "Transfer",
      "type": "event"
    },
    {
      "inputs": [
        {
          "internalType": "address",
          "name": "to",
          "type": "address"
        },
        {
          "internalType": "uint256",
          "name": "tokenId",
          "type": "uint256"
        }
      ],
      "name": "approve",
      "outputs": [],
      "stateMutability": "nonpayable",
      "type": "function"
    },
    {
      "inputs": [
        {
          "internalType": "address",
          "name": "owner",
          "type": "address"
        }
      ],
      "name": "balanceOf",
      "outputs": [
        {
          "internalType": "uint256",
          "name": "",
          "type": "uint256"
        }
      ],
      "stateMutability": "view",
      "type": "function"
    },
    {
      "inputs": [
        {
          "internalType": "uint256",
          "name": "tokenID",
          "type": "uint256"
        }
      ],
      "name": "buyNFT",
      "outputs": [],
      "stateMutability": "payable",
      "type": "function"
    },
    {
      "inputs": [
        {
          "internalType": "uint256",
          "name": "tokenID",
          "type": "uint256"
        }
      ],
      "name": "cancelListing",
      "outputs": [],
      "stateMutability": "nonpayable",
      "type": "function"
    },
    {
      "inputs": [
        {
          "internalType": "uint256",
          "name": "tokenId",
          "type": "uint256"
        }
      ],
      "name": "getApproved",
      "outputs": [
        {
          "internalType": "address",
          "name": "",
          "type": "address"
        }
      ],
      "stateMutability": "view",
      "type": "function"
    },
    {
      "inputs": [
        {
          "internalType": "address",
          "name": "owner",
          "type": "address"
        },
        {
          "internalType": "address",
          "name": "operator",
          "type": "address"
        }
      ],
      "name": "isApprovedForAll",
      "outputs": [
        {
          "internalType": "bool",
          "name": "",
          "type": "bool"
        }
      ],
      "stateMutability": "view",
      "type": "function"
    },
    {
      "inputs": [
        {
          "internalType": "uint256",
          "name": "tokenID",
          "type": "uint256"
        },
        {
          "internalType": "uint256",
          "name": "price",
          "type": "uint256"
        }
      ],
      "name": "listNFT",
      "outputs": [],
      "stateMutability": "nonpayable",
      "type": "function"
    },
    {
      "inputs": [],
      "name": "name",
      "outputs": [
        {
          "internalType": "string",
          "name": "",
          "type": "string"
        }
      ],
      "stateMutability": "view",
      "type": "function"
    },
    {
      "inputs": [
        {
          "internalType": "uint256",
          "name": "tokenId",
          "type": "uint256"
        }
      ],
      "name": "ownerOf",
      "outputs": [
        {
          "internalType": "address",
          "name": "",
          "type": "address"
        }
      ],
      "stateMutability": "view",
      "type": "function"
    },
    {
      "inputs": [
        {
          "internalType": "address",
          "name": "from",
          "type": "address"
        },
        {
          "internalType": "address",
          "name": "to",
          "type": "address"
        },
        {
          "internalType": "uint256",
          "name": "tokenId",
          "type": "uint256"
        }
      ],
      "name": "safeTransferFrom",
      "outputs": [],
      "stateMutability": "nonpayable",
      "type": "function"
    },
    {
      "inputs": [
        {
          "internalType": "address",
          "name": "from",
          "type": "address"
        },
        {
          "internalType": "address",
          "name": "to",
          "type": "address"
        },
        {
          "internalType": "uint256",
          "name": "tokenId",
          "type": "uint256"
        },
        {
          "internalType": "bytes",
          "name": "data",
          "type": "bytes"
        }
      ],
      "name": "safeTransferFrom",
      "outputs": [],
      "stateMutability": "nonpayable",
      "type": "function"
    },
    {
      "inputs": [
        {
          "internalType": "address",
          "name": "operator",
          "type": "address"
        },
        {
          "internalType": "bool",
          "name": "approved",
          "type": "bool"
        }
      ],
      "name": "setApprovalForAll",
      "outputs": [],
      "stateMutability": "nonpayable",
      "type": "function"
    },
    {
      "inputs": [
        {
          "internalType": "bytes4",
          "name": "interfaceId",
          "type": "bytes4"
        }
      ],
      "name": "supportsInterface",
      "outputs": [
        {
          "internalType": "bool",
          "name": "",
          "type": "bool"
        }
      ],
      "stateMutability": "view",
      "type": "function"
    },
    {
      "inputs": [],
      "name": "symbol",
      "outputs": [
        {
          "internalType": "string",
          "name": "",
          "type": "string"
        }
      ],
      "stateMutability": "view",
      "type": "function"
    },
    {
      "inputs": [
        {
          "internalType": "uint256",
          "name": "tokenId",
          "type": "uint256"
        }
      ],
      "name": "tokenURI",
      "outputs": [
        {
          "internalType": "string",
          "name": "",
          "type": "string"
        }
      ],
      "stateMutability": "view",
      "type": "function"
    },
    {
      "inputs": [
        {
          "internalType": "address",
          "name": "from",
          "type": "address"
        },
        {
          "internalType": "address",
          "name": "to",
          "type": "address"
        },
        {
          "internalType": "uint256",
          "name": "tokenId",
          "type": "uint256"
        }
      ],
      "name": "transferFrom",
      "outputs": [],
      "stateMutability": "nonpayable",
      "type": "function"
    },
    {
      "inputs": [],
      "name": "withdrawFunds",
      "outputs": [],
      "stateMutability": "nonpayable",
      "type": "function"
    }
  ],
  "bytecode": "0x60806040523480156200001157600080fd5b506040518060400160405280601481526020017f47656d61204e4654204d61726b6574706c6163650000000000000000000000008152506040518060400160405280601481526020017f47656d61204e4654204d61726b6574706c61636500000000000000000000000081525081600090816200008f919062000365565b508060019081620000a1919062000365565b50505033600860006101000a81548173ffffffffffffffffffffffffffffffffffffffff021916908373ffffffffffffffffffffffffffffffffffffffff1602179055506200044c565b600081519050919050565b7f4e487b7100000000000000000000000000000000000000000000000000000000600052604160045260246000fd5b7f4e487b7100000000000000000000000000000000000000000000000000000000600052602260045260246000fd5b600060028204905060018216806200016d57607f821691505b60208210810362000183576200018262000125565b5b50919050565b60008190508160005260206000209050919050565b60006020601f8301049050919050565b600082821b905092915050565b600060088302620001ed7fffffffffffffffffffffffffffffffffffffffffffffffffffffffffffffffff82620001ae565b620001f98683620001ae565b95508019841693508086168417925050509392505050565b6000819050919050565b6000819050919050565b600062000246620002406200023a8462000211565b6200021b565b62000211565b9050919050565b6000819050919050565b620002628362000225565b6200027a62000271826200024d565b848454620001bb565b825550505050565b600090565b6200029162000282565b6200029e81848462000257565b505050565b5b81811015620002c657620002ba60008262000287565b600181019050620002a4565b5050565b601f8211156200031557620002df8162000189565b620002ea846200019e565b81016020851015620002fa578190505b6200031262000309856200019e565b830182620002a3565b50505b505050565b600082821c905092915050565b60006200033a600019846008026200031a565b1980831691505092915050565b600062000355838362000327565b9150826002028217905092915050565b6200037082620000eb565b67ffffffffffffffff8111156200038c576200038b620000f6565b5b62000398825462000154565b620003a5828285620002ca565b600060209050601f831160018114620003dd5760008415620003c8578287015190505b620003d4858262000347565b86555062000444565b601f198416620003ed8662000189565b60005b828110156200041757848901518255600182019150602085019450602081019050620003f0565b8683101562000437578489015162000433601f89168262000327565b8355505b6001600288020188555050505b505050505050565b612b58806200045c6000396000f3fe6080604052600436106100fe5760003560e01c806351ed82881161009557806395d89b411161006457806395d89b4114610322578063a22cb4651461034d578063b88d4fde14610376578063c87b56dd1461039f578063e985e9c5146103dc576100fe565b806351ed8288146102635780636352211e1461027f57806370a08231146102bc57806394383f14146102f9576100fe565b806323b872dd116100d157806323b872dd146101d157806324600fc3146101fa578063305a67a81461021157806342842e0e1461023a576100fe565b806301ffc9a71461010357806306fdde0314610140578063081812fc1461016b578063095ea7b3146101a8575b600080fd5b34801561010f57600080fd5b5061012a60048036038101906101259190611e74565b610419565b6040516101379190611ebc565b60405180910390f35b34801561014c57600080fd5b5061015561047a565b6040516101629190611f67565b60405180910390f35b34801561017757600080fd5b50610192600480360381019061018d9190611fbf565b61050c565b60405161019f919061202d565b60405180910390f35b3480156101b457600080fd5b506101cf60048036038101906101ca9190612074565b610528565b005b3480156101dd57600080fd5b506101f860048036038101906101f391906120b4565b61053e565b005b34801561020657600080fd5b5061020f610640565b005b34801561021d57600080fd5b5061023860048036038101906102339190611fbf565b610762565b005b34801561024657600080fd5b50610261600480360381019061025c91906120b4565b610957565b005b61027d60048036038101906102789190611fbf565b610977565b005b34801561028b57600080fd5b506102a660048036038101906102a19190611fbf565b610ba7565b6040516102b3919061202d565b60405180910390f35b3480156102c857600080fd5b506102e360048036038101906102de9190612107565b610bb9565b6040516102f09190612143565b60405180910390f35b34801561030557600080fd5b50610320600480360381019061031b919061215e565b610c73565b005b34801561032e57600080fd5b50610337610d94565b6040516103449190611f67565b60405180910390f35b34801561035957600080fd5b50610374600480360381019061036f91906121ca565b610e26565b005b34801561038257600080fd5b5061039d6004803603810190610398919061233f565b610e3c565b005b3480156103ab57600080fd5b506103c660048036038101906103c19190611fbf565b610e59565b6040516103d39190611f67565b60405180910390f35b3480156103e857600080fd5b5061040360048036038101906103fe91906123c2565b610f6c565b6040516104109190611ebc565b60405180910390f35b6000634906490660e01b7bffffffffffffffffffffffffffffffffffffffffffffffffffffffff1916827bffffffffffffffffffffffffffffffffffffffffffffffffffffffff19161480610473575061047282611000565b5b9050919050565b60606000805461048990612431565b80601f01602080910402602001604051908101604052809291908181526020018280546104b590612431565b80156105025780601f106104d757610100808354040283529160200191610502565b820191906000526020600020905b8154815290600101906020018083116104e557829003601f168201915b5050505050905090565b6000610517826110e2565b506105218261116a565b9050919050565b61053a82826105356111a7565b6111af565b5050565b600073ffffffffffffffffffffffffffffffffffffffff168273ffffffffffffffffffffffffffffffffffffffff16036105b05760006040517f64a0ae920000000000000000000000000000000000000000000000000000000081526004016105a7919061202d565b60405180910390fd5b60006105c483836105bf6111a7565b6111c1565b90508373ffffffffffffffffffffffffffffffffffffffff168173ffffffffffffffffffffffffffffffffffffffff161461063a578382826040517f64283d7b00000000000000000000000000000000000000000000000000000000815260040161063193929190612462565b60405180910390fd5b50505050565b600860009054906101000a900473ffffffffffffffffffffffffffffffffffffffff1673ffffffffffffffffffffffffffffffffffffffff163373ffffffffffffffffffffffffffffffffffffffff16146106d0576040517f08c379a00000000000000000000000000000000000000000000000000000000081526004016106c79061250b565b60405180910390fd5b600047905060008111610718576040517f08c379a000000000000000000000000000000000000000000000000000000000815260040161070f9061259d565b60405180910390fd5b3373ffffffffffffffffffffffffffffffffffffffff166108fc829081150290604051600060405180830381858888f1935050505015801561075e573d6000803e3d6000fd5b5050565b600060076000838152602001908152602001600020604051806040016040529081600082015481526020016001820160009054906101000a900473ffffffffffffffffffffffffffffffffffffffff1673ffffffffffffffffffffffffffffffffffffffff1673ffffffffffffffffffffffffffffffffffffffff16815250509050600081600001511161082b576040517f08c379a00000000000000000000000000000000000000000000000000000000081526004016108229061262f565b60405180910390fd5b3373ffffffffffffffffffffffffffffffffffffffff16816020015173ffffffffffffffffffffffffffffffffffffffff161461089d576040517f08c379a0000000000000000000000000000000000000000000000000000000008152600401610894906126c1565b60405180910390fd5b3073ffffffffffffffffffffffffffffffffffffffff166323b872dd3033856040518463ffffffff1660e01b81526004016108da939291906126e1565b600060405180830381600087803b1580156108f457600080fd5b505af1158015610908573d6000803e3d6000fd5b50505050610915826113db565b7f64b0b651712fca7c75799c6b4e43e37d516fcee4f67d64925cdfbfb9d3c5dd3c823033600060405161094b949392919061275d565b60405180910390a15050565b61097283838360405180602001604052806000815250610e3c565b505050565b600060076000838152602001908152602001600020604051806040016040529081600082015481526020016001820160009054906101000a900473ffffffffffffffffffffffffffffffffffffffff1673ffffffffffffffffffffffffffffffffffffffff1673ffffffffffffffffffffffffffffffffffffffff168152505090506000816000015111610a40576040517f08c379a0000000000000000000000000000000000000000000000000000000008152600401610a379061262f565b60405180910390fd5b80600001513414610a86576040517f08c379a0000000000000000000000000000000000000000000000000000000008152600401610a7d906127ee565b60405180910390fd5b3073ffffffffffffffffffffffffffffffffffffffff166323b872dd3033856040518463ffffffff1660e01b8152600401610ac3939291906126e1565b600060405180830381600087803b158015610add57600080fd5b505af1158015610af1573d6000803e3d6000fd5b50505050610afe826113db565b806020015173ffffffffffffffffffffffffffffffffffffffff166108fc6064605f8460000151610b2f919061283d565b610b3991906128ae565b9081150290604051600060405180830381858888f19350505050158015610b64573d6000803e3d6000fd5b507f64b0b651712fca7c75799c6b4e43e37d516fcee4f67d64925cdfbfb9d3c5dd3c8230336000604051610b9b949392919061275d565b60405180910390a15050565b6000610bb2826110e2565b9050919050565b60008073ffffffffffffffffffffffffffffffffffffffff168273ffffffffffffffffffffffffffffffffffffffff1603610c2c5760006040517f89c62b64000000000000000000000000000000000000000000000000000000008152600401610c23919061202d565b60405180910390fd5b600360008373ffffffffffffffffffffffffffffffffffffffff1673ffffffffffffffffffffffffffffffffffffffff168152602001908152602001600020549050919050565b60008111610cb6576040517f08c379a0000000000000000000000000000000000000000000000000000000008152600401610cad90612951565b60405180910390fd5b610cc133308461053e565b60405180604001604052808281526020013373ffffffffffffffffffffffffffffffffffffffff16815250600760008481526020019081526020016000206000820151816000015560208201518160010160006101000a81548173ffffffffffffffffffffffffffffffffffffffff021916908373ffffffffffffffffffffffffffffffffffffffff1602179055509050507f64b0b651712fca7c75799c6b4e43e37d516fcee4f67d64925cdfbfb9d3c5dd3c82333084604051610d889493929190612971565b60405180910390a15050565b606060018054610da390612431565b80601f0160208091040260200160405190810160405280929190818152602001828054610dcf90612431565b8015610e1c5780601f10610df157610100808354040283529160200191610e1c565b820191906000526020600020905b815481529060010190602001808311610dff57829003601f168201915b5050505050905090565b610e38610e316111a7565b8383611450565b5050565b610e4784848461053e565b610e53848484846115bf565b50505050565b6060610e64826110e2565b506000600660008481526020019081526020016000208054610e8590612431565b80601f0160208091040260200160405190810160405280929190818152602001828054610eb190612431565b8015610efe5780601f10610ed357610100808354040283529160200191610efe565b820191906000526020600020905b815481529060010190602001808311610ee157829003601f168201915b505050505090506000610f0f611776565b90506000815103610f24578192505050610f67565b600082511115610f59578082604051602001610f419291906129f2565b60405160208183030381529060405292505050610f67565b610f628461178d565b925050505b919050565b6000600560008473ffffffffffffffffffffffffffffffffffffffff1673ffffffffffffffffffffffffffffffffffffffff16815260200190815260200160002060008373ffffffffffffffffffffffffffffffffffffffff1673ffffffffffffffffffffffffffffffffffffffff16815260200190815260200160002060009054906101000a900460ff16905092915050565b60007f80ac58cd000000000000000000000000000000000000000000000000000000007bffffffffffffffffffffffffffffffffffffffffffffffffffffffff1916827bffffffffffffffffffffffffffffffffffffffffffffffffffffffff191614806110cb57507f5b5e139f000000000000000000000000000000000000000000000000000000007bffffffffffffffffffffffffffffffffffffffffffffffffffffffff1916827bffffffffffffffffffffffffffffffffffffffffffffffffffffffff1916145b806110db57506110da826117f6565b5b9050919050565b6000806110ee83611860565b9050600073ffffffffffffffffffffffffffffffffffffffff168173ffffffffffffffffffffffffffffffffffffffff160361116157826040517f7e2732890000000000000000000000000000000000000000000000000000000081526004016111589190612143565b60405180910390fd5b80915050919050565b60006004600083815260200190815260200160002060009054906101000a900473ffffffffffffffffffffffffffffffffffffffff169050919050565b600033905090565b6111bc838383600161189d565b505050565b6000806111cd84611860565b9050600073ffffffffffffffffffffffffffffffffffffffff168373ffffffffffffffffffffffffffffffffffffffff161461120f5761120e818486611a62565b5b600073ffffffffffffffffffffffffffffffffffffffff168173ffffffffffffffffffffffffffffffffffffffff16146112a05761125160008560008061189d565b6001600360008373ffffffffffffffffffffffffffffffffffffffff1673ffffffffffffffffffffffffffffffffffffffff168152602001908152602001600020600082825403925050819055505b600073ffffffffffffffffffffffffffffffffffffffff168573ffffffffffffffffffffffffffffffffffffffff1614611323576001600360008773ffffffffffffffffffffffffffffffffffffffff1673ffffffffffffffffffffffffffffffffffffffff168152602001908152602001600020600082825401925050819055505b846002600086815260200190815260200160002060006101000a81548173ffffffffffffffffffffffffffffffffffffffff021916908373ffffffffffffffffffffffffffffffffffffffff160217905550838573ffffffffffffffffffffffffffffffffffffffff168273ffffffffffffffffffffffffffffffffffffffff167fddf252ad1be2c89b69c2b068fc378daa952ba7f163c4a11628f55a4df523b3ef60405160405180910390a4809150509392505050565b6000600760008381526020019081526020016000206000018190555060006007600083815260200190815260200160002060010160006101000a81548173ffffffffffffffffffffffffffffffffffffffff021916908373ffffffffffffffffffffffffffffffffffffffff16021790555050565b600073ffffffffffffffffffffffffffffffffffffffff168273ffffffffffffffffffffffffffffffffffffffff16036114c157816040517f5b08ba180000000000000000000000000000000000000000000000000000000081526004016114b8919061202d565b60405180910390fd5b80600560008573ffffffffffffffffffffffffffffffffffffffff1673ffffffffffffffffffffffffffffffffffffffff16815260200190815260200160002060008473ffffffffffffffffffffffffffffffffffffffff1673ffffffffffffffffffffffffffffffffffffffff16815260200190815260200160002060006101000a81548160ff0219169083151502179055508173ffffffffffffffffffffffffffffffffffffffff168373ffffffffffffffffffffffffffffffffffffffff167f17307eab39ab6107e8899845ad3d59bd9653f200f220920489ca2b5937696c31836040516115b29190611ebc565b60405180910390a3505050565b60008373ffffffffffffffffffffffffffffffffffffffff163b1115611770578273ffffffffffffffffffffffffffffffffffffffff1663150b7a026116036111a7565b8685856040518563ffffffff1660e01b81526004016116259493929190612a6b565b6020604051808303816000875af192505050801561166157506040513d601f19601f8201168201806040525081019061165e9190612acc565b60015b6116e5573d8060008114611691576040519150601f19603f3d011682016040523d82523d6000602084013e611696565b606091505b5060008151036116dd57836040517f64a0ae920000000000000000000000000000000000000000000000000000000081526004016116d4919061202d565b60405180910390fd5b805181602001fd5b63150b7a0260e01b7bffffffffffffffffffffffffffffffffffffffffffffffffffffffff1916817bffffffffffffffffffffffffffffffffffffffffffffffffffffffff19161461176e57836040517f64a0ae92000000000000000000000000000000000000000000000000000000008152600401611765919061202d565b60405180910390fd5b505b50505050565b606060405180602001604052806000815250905090565b6060611798826110e2565b5060006117a3611776565b905060008151116117c357604051806020016040528060008152506117ee565b806117cd84611b26565b6040516020016117de9291906129f2565b6040516020818303038152906040525b915050919050565b60007f01ffc9a7000000000000000000000000000000000000000000000000000000007bffffffffffffffffffffffffffffffffffffffffffffffffffffffff1916827bffffffffffffffffffffffffffffffffffffffffffffffffffffffff1916149050919050565b60006002600083815260200190815260200160002060009054906101000a900473ffffffffffffffffffffffffffffffffffffffff169050919050565b80806118d65750600073ffffffffffffffffffffffffffffffffffffffff168273ffffffffffffffffffffffffffffffffffffffff1614155b15611a0a5760006118e6846110e2565b9050600073ffffffffffffffffffffffffffffffffffffffff168373ffffffffffffffffffffffffffffffffffffffff161415801561195157508273ffffffffffffffffffffffffffffffffffffffff168173ffffffffffffffffffffffffffffffffffffffff1614155b801561196457506119628184610f6c565b155b156119a657826040517fa9fbf51f00000000000000000000000000000000000000000000000000000000815260040161199d919061202d565b60405180910390fd5b8115611a0857838573ffffffffffffffffffffffffffffffffffffffff168273ffffffffffffffffffffffffffffffffffffffff167f8c5be1e5ebec7d5bd14f71427d1e84f3dd0314c0f7b2291e5b200ac8c7c3b92560405160405180910390a45b505b836004600085815260200190815260200160002060006101000a81548173ffffffffffffffffffffffffffffffffffffffff021916908373ffffffffffffffffffffffffffffffffffffffff16021790555050505050565b611a6d838383611bf4565b611b2157600073ffffffffffffffffffffffffffffffffffffffff168373ffffffffffffffffffffffffffffffffffffffff1603611ae257806040517f7e273289000000000000000000000000000000000000000000000000000000008152600401611ad99190612143565b60405180910390fd5b81816040517f177e802f000000000000000000000000000000000000000000000000000000008152600401611b18929190612af9565b60405180910390fd5b505050565b606060006001611b3584611cb5565b01905060008167ffffffffffffffff811115611b5457611b53612214565b5b6040519080825280601f01601f191660200182016040528015611b865781602001600182028036833780820191505090505b509050600082602001820190505b600115611be9578080600190039150507f3031323334353637383961626364656600000000000000000000000000000000600a86061a8153600a8581611bdd57611bdc61287f565b5b04945060008503611b94575b819350505050919050565b60008073ffffffffffffffffffffffffffffffffffffffff168373ffffffffffffffffffffffffffffffffffffffff1614158015611cac57508273ffffffffffffffffffffffffffffffffffffffff168473ffffffffffffffffffffffffffffffffffffffff161480611c6d5750611c6c8484610f6c565b5b80611cab57508273ffffffffffffffffffffffffffffffffffffffff16611c938361116a565b73ffffffffffffffffffffffffffffffffffffffff16145b5b90509392505050565b600080600090507a184f03e93ff9f4daa797ed6e38ed64bf6a1f0100000000000000008310611d13577a184f03e93ff9f4daa797ed6e38ed64bf6a1f0100000000000000008381611d0957611d0861287f565b5b0492506040810190505b6d04ee2d6d415b85acef81000000008310611d50576d04ee2d6d415b85acef81000000008381611d4657611d4561287f565b5b0492506020810190505b662386f26fc100008310611d7f57662386f26fc100008381611d7557611d7461287f565b5b0492506010810190505b6305f5e1008310611da8576305f5e1008381611d9e57611d9d61287f565b5b0492506008810190505b6127108310611dcd576127108381611dc357611dc261287f565b5b0492506004810190505b60648310611df05760648381611de657611de561287f565b5b0492506002810190505b600a8310611dff576001810190505b80915050919050565b6000604051905090565b600080fd5b600080fd5b60007fffffffff0000000000000000000000000000000000000000000000000000000082169050919050565b611e5181611e1c565b8114611e5c57600080fd5b50565b600081359050611e6e81611e48565b92915050565b600060208284031215611e8a57611e89611e12565b5b6000611e9884828501611e5f565b91505092915050565b60008115159050919050565b611eb681611ea1565b82525050565b6000602082019050611ed16000830184611ead565b92915050565b600081519050919050565b600082825260208201905092915050565b60005b83811015611f11578082015181840152602081019050611ef6565b60008484015250505050565b6000601f19601f8301169050919050565b6000611f3982611ed7565b611f438185611ee2565b9350611f53818560208601611ef3565b611f5c81611f1d565b840191505092915050565b60006020820190508181036000830152611f818184611f2e565b905092915050565b6000819050919050565b611f9c81611f89565b8114611fa757600080fd5b50565b600081359050611fb981611f93565b92915050565b600060208284031215611fd557611fd4611e12565b5b6000611fe384828501611faa565b91505092915050565b600073ffffffffffffffffffffffffffffffffffffffff82169050919050565b600061201782611fec565b9050919050565b6120278161200c565b82525050565b6000602082019050612042600083018461201e565b92915050565b6120518161200c565b811461205c57600080fd5b50565b60008135905061206e81612048565b92915050565b6000806040838503121561208b5761208a611e12565b5b60006120998582860161205f565b92505060206120aa85828601611faa565b9150509250929050565b6000806000606084860312156120cd576120cc611e12565b5b60006120db8682870161205f565b93505060206120ec8682870161205f565b92505060406120fd86828701611faa565b9150509250925092565b60006020828403121561211d5761211c611e12565b5b600061212b8482850161205f565b91505092915050565b61213d81611f89565b82525050565b60006020820190506121586000830184612134565b92915050565b6000806040838503121561217557612174611e12565b5b600061218385828601611faa565b925050602061219485828601611faa565b9150509250929050565b6121a781611ea1565b81146121b257600080fd5b50565b6000813590506121c48161219e565b92915050565b600080604083850312156121e1576121e0611e12565b5b60006121ef8582860161205f565b9250506020612200858286016121b5565b9150509250929050565b600080fd5b600080fd5b7f4e487b7100000000000000000000000000000000000000000000000000000000600052604160045260246000fd5b61224c82611f1d565b810181811067ffffffffffffffff8211171561226b5761226a612214565b5b80604052505050565b600061227e611e08565b905061228a8282612243565b919050565b600067ffffffffffffffff8211156122aa576122a9612214565b5b6122b382611f1d565b9050602081019050919050565b82818337600083830152505050565b60006122e26122dd8461228f565b612274565b9050828152602081018484840111156122fe576122fd61220f565b5b6123098482856122c0565b509392505050565b600082601f8301126123265761232561220a565b5b81356123368482602086016122cf565b91505092915050565b6000806000806080858703121561235957612358611e12565b5b60006123678782880161205f565b94505060206123788782880161205f565b935050604061238987828801611faa565b925050606085013567ffffffffffffffff8111156123aa576123a9611e17565b5b6123b687828801612311565b91505092959194509250565b600080604083850312156123d9576123d8611e12565b5b60006123e78582860161205f565b92505060206123f88582860161205f565b9150509250929050565b7f4e487b7100000000000000000000000000000000000000000000000000000000600052602260045260246000fd5b6000600282049050600182168061244957607f821691505b60208210810361245c5761245b612402565b5b50919050565b6000606082019050612477600083018661201e565b6124846020830185612134565b612491604083018461201e565b949350505050565b7f4e46544d61726b65743a20596f7520617265206e6f74206f776e6572206f662060008201527f7468697320636f6e747261637400000000000000000000000000000000000000602082015250565b60006124f5602d83611ee2565b915061250082612499565b604082019050919050565b60006020820190508181036000830152612524816124e8565b9050919050565b7f4e46544d61726b65743a20436f6e74726163742062616c616e6365206973207a60008201527f65726f2c2063616e6e6f74207472616e66657200000000000000000000000000602082015250565b6000612587603383611ee2565b91506125928261252b565b604082019050919050565b600060208201905081810360008301526125b68161257a565b9050919050565b7f4e46544d61726b65743a204e4654206e6f74206c697374656420666f7220736160008201527f6c65000000000000000000000000000000000000000000000000000000000000602082015250565b6000612619602283611ee2565b9150612624826125bd565b604082019050919050565b600060208201905081810360008301526126488161260c565b9050919050565b7f4e46544d61726b65743a20596f7520617265206e6f74206f776e6572206f662060008201527f74686973204e4654000000000000000000000000000000000000000000000000602082015250565b60006126ab602883611ee2565b91506126b68261264f565b604082019050919050565b600060208201905081810360008301526126da8161269e565b9050919050565b60006060820190506126f6600083018661201e565b612703602083018561201e565b6127106040830184612134565b949350505050565b6000819050919050565b6000819050919050565b600061274761274261273d84612718565b612722565b611f89565b9050919050565b6127578161272c565b82525050565b60006080820190506127726000830187612134565b61277f602083018661201e565b61278c604083018561201e565b612799606083018461274e565b95945050505050565b7f4e46544d61726b65743a20696e636f7272656374207072696365000000000000600082015250565b60006127d8601a83611ee2565b91506127e3826127a2565b602082019050919050565b60006020820190508181036000830152612807816127cb565b9050919050565b7f4e487b7100000000000000000000000000000000000000000000000000000000600052601160045260246000fd5b600061284882611f89565b915061285383611f89565b925082820261286181611f89565b915082820484148315176128785761287761280e565b5b5092915050565b7f4e487b7100000000000000000000000000000000000000000000000000000000600052601260045260246000fd5b60006128b982611f89565b91506128c483611f89565b9250826128d4576128d361287f565b5b828204905092915050565b7f4e46544d61726b65743a207072696365206d757374206265206772656174657260008201527f207468616e203000000000000000000000000000000000000000000000000000602082015250565b600061293b602783611ee2565b9150612946826128df565b604082019050919050565b6000602082019050818103600083015261296a8161292e565b9050919050565b60006080820190506129866000830187612134565b612993602083018661201e565b6129a0604083018561201e565b6129ad6060830184612134565b95945050505050565b600081905092915050565b60006129cc82611ed7565b6129d681856129b6565b93506129e6818560208601611ef3565b80840191505092915050565b60006129fe82856129c1565b9150612a0a82846129c1565b91508190509392505050565b600081519050919050565b600082825260208201905092915050565b6000612a3d82612a16565b612a478185612a21565b9350612a57818560208601611ef3565b612a6081611f1d565b840191505092915050565b6000608082019050612a80600083018761201e565b612a8d602083018661201e565b612a9a6040830185612134565b8181036060830152612aac8184612a32565b905095945050505050565b600081519050612ac681611e48565b92915050565b600060208284031215612ae257612ae1611e12565b5b6000612af084828501612ab7565b91505092915050565b6000604082019050612b0e600083018561201e565b612b1b6020830184612134565b939250505056fea26469706673582212206bb8107adc66d421f7237a66209fe2ba44e47bfd5a76fbc972063bfe6753892f64736f6c63430008180033",
  "linkReferences": {},
  "deployedLinkReferences": {}
}