{
  "_format": "hh-sol-artifact-1",
  "contractName": "NFTMarket",
  "sourceName": "contracts/NFTMarket.sol",
  "abi": [
    {
      "inputs": [],
      "stateMutability": "nonpayable",
      "type": "constructor"
    },
    {
      "anonymous": false,
      "inputs": [
        {
          "indexed": false,
          "internalType": "address",
          "name": "tokenAddress",
          "type": "address"
        },
        {
          "indexed": false,
          "internalType": "uint256",
          "name": "tokenID",
          "type": "uint256"
        },
        {
          "indexed": false,
          "internalType": "address",
          "name": "from",
          "type": "address"
        },
        {
          "indexed": false,
          "internalType": "address",
          "name": "to",
          "type": "address"
        },
        {
          "indexed": false,
          "internalType": "uint256",
          "name": "price",
          "type": "uint256"
        }
      ],
      "name": "NFTTransferEvent",
      "type": "event"
    },
    {
      "inputs": [
        {
          "internalType": "address",
          "name": "tokenAddress",
          "type": "address"
        },
        {
          "internalType": "uint256",
          "name": "tokenID",
          "type": "uint256"
        }
      ],
      "name": "buyNFT",
      "outputs": [],
      "stateMutability": "payable",
      "type": "function"
    },
    {
      "inputs": [
        {
          "internalType": "address",
          "name": "tokenAddress",
          "type": "address"
        },
        {
          "internalType": "uint256",
          "name": "tokenID",
          "type": "uint256"
        }
      ],
      "name": "cancelListing",
      "outputs": [],
      "stateMutability": "nonpayable",
      "type": "function"
    },
    {
      "inputs": [
        {
          "internalType": "address",
          "name": "tokenAddress",
          "type": "address"
        },
        {
          "internalType": "uint256",
          "name": "tokenID",
          "type": "uint256"
        },
        {
          "internalType": "uint256",
          "name": "price",
          "type": "uint256"
        }
      ],
      "name": "listNFT",
      "outputs": [],
      "stateMutability": "nonpayable",
      "type": "function"
    },
    {
      "inputs": [],
      "name": "withdrawFunds",
      "outputs": [],
      "stateMutability": "nonpayable",
      "type": "function"
    }
  ],
  "bytecode": "0x608060405234801561001057600080fd5b5033600160006101000a81548173ffffffffffffffffffffffffffffffffffffffff021916908373ffffffffffffffffffffffffffffffffffffffff16021790555061100c806100616000396000f3fe60806040526004361061003f5760003560e01c806324600fc314610044578063a82ba76f1461005b578063ad05f1b414610077578063b2ddee06146100a0575b600080fd5b34801561005057600080fd5b506100596100c9565b005b610075600480360381019061007091906109db565b6101eb565b005b34801561008357600080fd5b5061009e60048036038101906100999190610a1b565b61045b565b005b3480156100ac57600080fd5b506100c760048036038101906100c291906109db565b61061f565b005b600160009054906101000a900473ffffffffffffffffffffffffffffffffffffffff1673ffffffffffffffffffffffffffffffffffffffff163373ffffffffffffffffffffffffffffffffffffffff1614610159576040517f08c379a000000000000000000000000000000000000000000000000000000000815260040161015090610af1565b60405180910390fd5b6000479050600081116101a1576040517f08c379a000000000000000000000000000000000000000000000000000000000815260040161019890610b83565b60405180910390fd5b3373ffffffffffffffffffffffffffffffffffffffff166108fc829081150290604051600060405180830381858888f193505050501580156101e7573d6000803e3d6000fd5b5050565b60008060008473ffffffffffffffffffffffffffffffffffffffff1673ffffffffffffffffffffffffffffffffffffffff1681526020019081526020016000206000838152602001908152602001600020604051806040016040529081600082015481526020016001820160009054906101000a900473ffffffffffffffffffffffffffffffffffffffff1673ffffffffffffffffffffffffffffffffffffffff1673ffffffffffffffffffffffffffffffffffffffff1681525050905060008160000151116102f0576040517f08c379a00000000000000000000000000000000000000000000000000000000081526004016102e790610c15565b60405180910390fd5b80600001513414610336576040517f08c379a000000000000000000000000000000000000000000000000000000000815260040161032d90610c81565b60405180910390fd5b6103408383610854565b8273ffffffffffffffffffffffffffffffffffffffff166323b872dd3033856040518463ffffffff1660e01b815260040161037d93929190610cbf565b600060405180830381600087803b15801561039757600080fd5b505af11580156103ab573d6000803e3d6000fd5b50505050806020015173ffffffffffffffffffffffffffffffffffffffff166108fc6064605f84600001516103e09190610d25565b6103ea9190610d96565b9081150290604051600060405180830381858888f19350505050158015610415573d6000803e3d6000fd5b507fdcafde9feff3fb6eb77c9e7d084d31a11e5426de422a9bcf7fb5ab3b91c0897a83833033600060405161044e959493929190610e0c565b60405180910390a1505050565b6000811161049e576040517f08c379a000000000000000000000000000000000000000000000000000000000815260040161049590610ed1565b60405180910390fd5b60405180604001604052808281526020013373ffffffffffffffffffffffffffffffffffffffff168152506000808573ffffffffffffffffffffffffffffffffffffffff1673ffffffffffffffffffffffffffffffffffffffff16815260200190815260200160002060008481526020019081526020016000206000820151816000015560208201518160010160006101000a81548173ffffffffffffffffffffffffffffffffffffffff021916908373ffffffffffffffffffffffffffffffffffffffff1602179055509050508273ffffffffffffffffffffffffffffffffffffffff166323b872dd3330856040518463ffffffff1660e01b81526004016105a993929190610cbf565b600060405180830381600087803b1580156105c357600080fd5b505af11580156105d7573d6000803e3d6000fd5b505050507fdcafde9feff3fb6eb77c9e7d084d31a11e5426de422a9bcf7fb5ab3b91c0897a8383333085604051610612959493929190610ef1565b60405180910390a1505050565b60008060008473ffffffffffffffffffffffffffffffffffffffff1673ffffffffffffffffffffffffffffffffffffffff1681526020019081526020016000206000838152602001908152602001600020604051806040016040529081600082015481526020016001820160009054906101000a900473ffffffffffffffffffffffffffffffffffffffff1673ffffffffffffffffffffffffffffffffffffffff1673ffffffffffffffffffffffffffffffffffffffff168152505090506000816000015111610724576040517f08c379a000000000000000000000000000000000000000000000000000000000815260040161071b90610c15565b60405180910390fd5b3373ffffffffffffffffffffffffffffffffffffffff16816020015173ffffffffffffffffffffffffffffffffffffffff1614610796576040517f08c379a000000000000000000000000000000000000000000000000000000000815260040161078d90610fb6565b60405180910390fd5b6107a08383610854565b8273ffffffffffffffffffffffffffffffffffffffff166323b872dd3033856040518463ffffffff1660e01b81526004016107dd93929190610cbf565b600060405180830381600087803b1580156107f757600080fd5b505af115801561080b573d6000803e3d6000fd5b505050507fdcafde9feff3fb6eb77c9e7d084d31a11e5426de422a9bcf7fb5ab3b91c0897a838330336000604051610847959493929190610e0c565b60405180910390a1505050565b60008060008473ffffffffffffffffffffffffffffffffffffffff1673ffffffffffffffffffffffffffffffffffffffff16815260200190815260200160002060008381526020019081526020016000206000018190555060008060008473ffffffffffffffffffffffffffffffffffffffff1673ffffffffffffffffffffffffffffffffffffffff168152602001908152602001600020600083815260200190815260200160002060010160006101000a81548173ffffffffffffffffffffffffffffffffffffffff021916908373ffffffffffffffffffffffffffffffffffffffff1602179055505050565b600080fd5b600073ffffffffffffffffffffffffffffffffffffffff82169050919050565b600061097282610947565b9050919050565b61098281610967565b811461098d57600080fd5b50565b60008135905061099f81610979565b92915050565b6000819050919050565b6109b8816109a5565b81146109c357600080fd5b50565b6000813590506109d5816109af565b92915050565b600080604083850312156109f2576109f1610942565b5b6000610a0085828601610990565b9250506020610a11858286016109c6565b9150509250929050565b600080600060608486031215610a3457610a33610942565b5b6000610a4286828701610990565b9350506020610a53868287016109c6565b9250506040610a64868287016109c6565b9150509250925092565b600082825260208201905092915050565b7f4e46544d61726b65743a20596f7520617265206e6f74206f776e6572206f662060008201527f7468697320636f6e747261637400000000000000000000000000000000000000602082015250565b6000610adb602d83610a6e565b9150610ae682610a7f565b604082019050919050565b60006020820190508181036000830152610b0a81610ace565b9050919050565b7f4e46544d61726b65743a20436f6e74726163742062616c616e6365206973207a60008201527f65726f2c2063616e6e6f74207472616e66657200000000000000000000000000602082015250565b6000610b6d603383610a6e565b9150610b7882610b11565b604082019050919050565b60006020820190508181036000830152610b9c81610b60565b9050919050565b7f4e46544d61726b65743a204e4654206e6f74206c697374656420666f7220736160008201527f6c65000000000000000000000000000000000000000000000000000000000000602082015250565b6000610bff602283610a6e565b9150610c0a82610ba3565b604082019050919050565b60006020820190508181036000830152610c2e81610bf2565b9050919050565b7f4e46544d61726b65743a20696e636f7272656374207072696365000000000000600082015250565b6000610c6b601a83610a6e565b9150610c7682610c35565b602082019050919050565b60006020820190508181036000830152610c9a81610c5e565b9050919050565b610caa81610967565b82525050565b610cb9816109a5565b82525050565b6000606082019050610cd46000830186610ca1565b610ce16020830185610ca1565b610cee6040830184610cb0565b949350505050565b7f4e487b7100000000000000000000000000000000000000000000000000000000600052601160045260246000fd5b6000610d30826109a5565b9150610d3b836109a5565b9250828202610d49816109a5565b91508282048414831517610d6057610d5f610cf6565b5b5092915050565b7f4e487b7100000000000000000000000000000000000000000000000000000000600052601260045260246000fd5b6000610da1826109a5565b9150610dac836109a5565b925082610dbc57610dbb610d67565b5b828204905092915050565b6000819050919050565b6000819050919050565b6000610df6610df1610dec84610dc7565b610dd1565b6109a5565b9050919050565b610e0681610ddb565b82525050565b600060a082019050610e216000830188610ca1565b610e2e6020830187610cb0565b610e3b6040830186610ca1565b610e486060830185610ca1565b610e556080830184610dfd565b9695505050505050565b7f4e46544d61726b65743a207072696365206d757374206265206772656174657260008201527f207468616e203000000000000000000000000000000000000000000000000000602082015250565b6000610ebb602783610a6e565b9150610ec682610e5f565b604082019050919050565b60006020820190508181036000830152610eea81610eae565b9050919050565b600060a082019050610f066000830188610ca1565b610f136020830187610cb0565b610f206040830186610ca1565b610f2d6060830185610ca1565b610f3a6080830184610cb0565b9695505050505050565b7f4e46544d61726b65743a20596f7520617265206e6f74206f776e6572206f662060008201527f74686973204e4654000000000000000000000000000000000000000000000000602082015250565b6000610fa0602883610a6e565b9150610fab82610f44565b604082019050919050565b60006020820190508181036000830152610fcf81610f93565b905091905056fea26469706673582212201731f797b84c4cbd9b4fae757f93346872762b8c215c87dc85e7807b40a02bc464736f6c63430008180033",
  "linkReferences": {},
  "deployedLinkReferences": {}
}